{
  "_format": "hh-sol-artifact-1",
  "contractName": "ShikshaChain",
  "sourceName": "contracts/ShikshaChain.sol",
  "abi": [
    {
      "inputs": [],
      "stateMutability": "nonpayable",
      "type": "constructor"
    },
    {
      "anonymous": false,
      "inputs": [
        {
          "indexed": true,
          "internalType": "string",
          "name": "examID",
          "type": "string"
        },
        {
          "indexed": true,
          "internalType": "address",
          "name": "student",
          "type": "address"
        },
        {
          "indexed": false,
          "internalType": "string",
          "name": "attemptHash",
          "type": "string"
        }
      ],
      "name": "AttemptHashGenerated",
      "type": "event"
    },
    {
      "anonymous": false,
      "inputs": [
        {
          "indexed": true,
          "internalType": "string",
          "name": "examID",
          "type": "string"
        },
        {
          "indexed": false,
          "internalType": "uint256",
          "name": "startTime",
          "type": "uint256"
        },
        {
          "indexed": false,
          "internalType": "uint256",
          "name": "endTime",
          "type": "uint256"
        }
      ],
      "name": "ExamCreated",
      "type": "event"
    },
    {
      "anonymous": false,
      "inputs": [
        {
          "indexed": true,
          "internalType": "string",
          "name": "examID",
          "type": "string"
        },
        {
          "indexed": false,
          "internalType": "string",
          "name": "resultHash",
          "type": "string"
        },
        {
          "indexed": false,
          "internalType": "string",
          "name": "resultURL",
          "type": "string"
        }
      ],
      "name": "ResultStored",
      "type": "event"
    },
    {
      "anonymous": false,
      "inputs": [
        {
          "indexed": true,
          "internalType": "string",
          "name": "examID",
          "type": "string"
        },
        {
          "indexed": false,
          "internalType": "uint256",
          "name": "count",
          "type": "uint256"
        }
      ],
      "name": "StudentsRegistered",
      "type": "event"
    },
    {
      "inputs": [
        {
          "internalType": "string",
          "name": "",
          "type": "string"
        },
        {
          "internalType": "address",
          "name": "",
          "type": "address"
        }
      ],
      "name": "attemptHashes",
      "outputs": [
        {
          "internalType": "string",
          "name": "",
          "type": "string"
        }
      ],
      "stateMutability": "view",
      "type": "function"
    },
    {
      "inputs": [
        {
          "internalType": "string",
          "name": "_examID",
          "type": "string"
        },
        {
          "internalType": "string",
          "name": "_formLink",
          "type": "string"
        },
        {
          "internalType": "uint256",
          "name": "_startTime",
          "type": "uint256"
        },
        {
          "internalType": "uint256",
          "name": "_endTime",
          "type": "uint256"
        }
      ],
      "name": "createExam",
      "outputs": [],
      "stateMutability": "nonpayable",
      "type": "function"
    },
    {
      "inputs": [
        {
          "internalType": "uint256",
          "name": "",
          "type": "uint256"
        }
      ],
      "name": "examIDs",
      "outputs": [
        {
          "internalType": "string",
          "name": "",
          "type": "string"
        }
      ],
      "stateMutability": "view",
      "type": "function"
    },
    {
      "inputs": [
        {
          "internalType": "string",
          "name": "",
          "type": "string"
        }
      ],
      "name": "exams",
      "outputs": [
        {
          "internalType": "string",
          "name": "examID",
          "type": "string"
        },
        {
          "internalType": "string",
          "name": "formLink",
          "type": "string"
        },
        {
          "internalType": "uint256",
          "name": "startTime",
          "type": "uint256"
        },
        {
          "internalType": "uint256",
          "name": "endTime",
          "type": "uint256"
        },
        {
          "internalType": "string",
          "name": "resultHash",
          "type": "string"
        },
        {
          "internalType": "string",
          "name": "resultURL",
          "type": "string"
        },
        {
          "internalType": "uint256",
          "name": "resultTimestamp",
          "type": "uint256"
        },
        {
          "internalType": "bool",
          "name": "isResultUploaded",
          "type": "bool"
        }
      ],
      "stateMutability": "view",
      "type": "function"
    },
    {
      "inputs": [
        {
          "internalType": "string",
          "name": "_examID",
          "type": "string"
        }
      ],
      "name": "generateAttemptHash",
      "outputs": [],
      "stateMutability": "nonpayable",
      "type": "function"
    },
    {
      "inputs": [],
      "name": "getAllExams",
      "outputs": [
        {
          "components": [
            {
              "internalType": "string",
              "name": "examID",
              "type": "string"
            },
            {
              "internalType": "string",
              "name": "formLink",
              "type": "string"
            },
            {
              "internalType": "uint256",
              "name": "startTime",
              "type": "uint256"
            },
            {
              "internalType": "uint256",
              "name": "endTime",
              "type": "uint256"
            },
            {
              "internalType": "string",
              "name": "resultHash",
              "type": "string"
            },
            {
              "internalType": "string",
              "name": "resultURL",
              "type": "string"
            },
            {
              "internalType": "uint256",
              "name": "resultTimestamp",
              "type": "uint256"
            },
            {
              "internalType": "bool",
              "name": "isResultUploaded",
              "type": "bool"
            }
          ],
          "internalType": "struct ShikshaChain.ExamInfo[]",
          "name": "",
          "type": "tuple[]"
        }
      ],
      "stateMutability": "view",
      "type": "function"
    },
    {
      "inputs": [
        {
          "internalType": "string",
          "name": "_examID",
          "type": "string"
        }
      ],
      "name": "getExamResult",
      "outputs": [
        {
          "internalType": "string",
          "name": "resultHash",
          "type": "string"
        },
        {
          "internalType": "uint256",
          "name": "resultTimestamp",
          "type": "uint256"
        },
        {
          "internalType": "bool",
          "name": "isResultUploaded",
          "type": "bool"
        }
      ],
      "stateMutability": "view",
      "type": "function"
    },
    {
      "inputs": [],
      "name": "owner",
      "outputs": [
        {
          "internalType": "address",
          "name": "",
          "type": "address"
        }
      ],
      "stateMutability": "view",
      "type": "function"
    },
    {
      "inputs": [
        {
          "internalType": "string",
          "name": "_examID",
          "type": "string"
        },
        {
          "internalType": "address[]",
          "name": "_studentAddresses",
          "type": "address[]"
        }
      ],
      "name": "registerStudents",
      "outputs": [],
      "stateMutability": "nonpayable",
      "type": "function"
    },
    {
      "inputs": [
        {
          "internalType": "string",
          "name": "",
          "type": "string"
        },
        {
          "internalType": "address",
          "name": "",
          "type": "address"
        }
      ],
      "name": "registeredStudents",
      "outputs": [
        {
          "internalType": "bool",
          "name": "",
          "type": "bool"
        }
      ],
      "stateMutability": "view",
      "type": "function"
    },
    {
      "inputs": [
        {
          "internalType": "string",
          "name": "_examID",
          "type": "string"
        },
        {
          "internalType": "string",
          "name": "_resultHash",
          "type": "string"
        },
        {
          "internalType": "string",
          "name": "_resultURL",
          "type": "string"
        }
      ],
      "name": "storeResult",
      "outputs": [],
      "stateMutability": "nonpayable",
      "type": "function"
    }
  ],
  "bytecode": "0x608060405234801561001057600080fd5b50336000806101000a81548173ffffffffffffffffffffffffffffffffffffffff021916908373ffffffffffffffffffffffffffffffffffffffff160217905550612d33806100606000396000f3fe608060405234801561001057600080fd5b50600436106100a95760003560e01c8063795994d911610071578063795994d914610178578063815e06b614610196578063844dc0d1146101b25780638da5cb5b146101ce578063971df9f6146101ec578063f587dd551461021c576100a9565b8063376a3edc146100ae578063435f63fc146100e057806355dfd350146101105780635f132d601461012c5780636f4dd3e11461015c575b600080fd5b6100c860048036038101906100c3919061191d565b610253565b6040516100d793929190611a2e565b60405180910390f35b6100fa60048036038101906100f59190611a98565b6103a3565b6040516101079190611ac5565b60405180910390f35b61012a60048036038101906101259190611ae7565b61044f565b005b61014660048036038101906101419190611d1c565b6107c5565b6040516101539190611d78565b60405180910390f35b6101766004803603810190610171919061191d565b61080a565b005b610180610b3e565b60405161018d9190611f82565b60405180910390f35b6101b060048036038101906101ab9190611fa4565b610eae565b005b6101cc60048036038101906101c791906120ae565b6110d4565b005b6101d66112eb565b6040516101e3919061213e565b60405180910390f35b61020660048036038101906102019190611d1c565b61130f565b6040516102139190611ac5565b60405180910390f35b61023660048036038101906102319190612159565b6113d2565b60405161024a9897969594939291906121a2565b60405180910390f35b606060008060006001868660405161026c92919061226c565b90815260200160405180910390206000018054610288906122b4565b9050116102ca576040517f08c379a00000000000000000000000000000000000000000000000000000000081526004016102c190612331565b60405180910390fd5b6000600186866040516102de92919061226c565b908152602001604051809103902090508060040181600601548260070160009054906101000a900460ff16828054610315906122b4565b80601f0160208091040260200160405190810160405280929190818152602001828054610341906122b4565b801561038e5780601f106103635761010080835404028352916020019161038e565b820191906000526020600020905b81548152906001019060200180831161037157829003601f168201915b50505050509250935093509350509250925092565b600481815481106103b357600080fd5b9060005260206000200160009150905080546103ce906122b4565b80601f01602080910402602001604051908101604052809291908181526020018280546103fa906122b4565b80156104475780601f1061041c57610100808354040283529160200191610447565b820191906000526020600020905b81548152906001019060200180831161042a57829003601f168201915b505050505081565b60008054906101000a900473ffffffffffffffffffffffffffffffffffffffff1673ffffffffffffffffffffffffffffffffffffffff163373ffffffffffffffffffffffffffffffffffffffff16146104dd576040517f08c379a00000000000000000000000000000000000000000000000000000000081526004016104d4906123c3565b60405180910390fd5b6000600187876040516104f192919061226c565b9081526020016040518091039020600001805461050d906122b4565b90501461054f576040517f08c379a000000000000000000000000000000000000000000000000000000000815260040161054690612455565b60405180910390fd5b808210610591576040517f08c379a0000000000000000000000000000000000000000000000000000000008152600401610588906124e7565b60405180910390fd5b60405180610100016040528087878080601f016020809104026020016040519081016040528093929190818152602001838380828437600081840152601f19601f82011690508083019250505050505050815260200185858080601f016020809104026020016040519081016040528093929190818152602001838380828437600081840152601f19601f82011690508083019250505050505050815260200183815260200182815260200160405180602001604052806000815250815260200160405180602001604052806000815250815260200160008152602001600015158152506001878760405161068792919061226c565b908152602001604051809103902060008201518160000190816106aa91906126b3565b5060208201518160010190816106c091906126b3565b50604082015181600201556060820151816003015560808201518160040190816106ea91906126b3565b5060a082015181600501908161070091906126b3565b5060c0820151816006015560e08201518160070160006101000a81548160ff021916908315150217905550905050600486869091806001815401808255809150506001900390600052602060002001600090919290919290919290919250918261076b929190612790565b50858560405161077c92919061226c565b60405180910390207f3a33be26646501a92f32cd9a2ac32684d86f6151c41e59dd9a08f4ccfcb03ae883836040516107b5929190612860565b60405180910390a2505050505050565b6002828051602081018201805184825260208301602085012081835280955050505050506020528060005260406000206000915091509054906101000a900460ff1681565b60006001838360405161081e92919061226c565b90815260200160405180910390209050600081600001805461083f906122b4565b905011610881576040517f08c379a000000000000000000000000000000000000000000000000000000000815260040161087890612331565b60405180910390fd5b6002838360405161089392919061226c565b908152602001604051809103902060003373ffffffffffffffffffffffffffffffffffffffff1673ffffffffffffffffffffffffffffffffffffffff16815260200190815260200160002060009054906101000a900460ff1661092b576040517f08c379a0000000000000000000000000000000000000000000000000000000008152600401610922906128fb565b60405180910390fd5b80600201544210158015610943575080600301544211155b610982576040517f08c379a000000000000000000000000000000000000000000000000000000000815260040161097990612967565b60405180910390fd5b60006003848460405161099692919061226c565b908152602001604051809103902060003373ffffffffffffffffffffffffffffffffffffffff1673ffffffffffffffffffffffffffffffffffffffff16815260200190815260200160002080546109ec906122b4565b905014610a2e576040517f08c379a0000000000000000000000000000000000000000000000000000000008152600401610a25906129d3565b60405180910390fd5b6000610a6584843342604051602001610a4a9493929190612a5c565b6040516020818303038152906040528051906020012061165d565b90508060038585604051610a7a92919061226c565b908152602001604051809103902060003373ffffffffffffffffffffffffffffffffffffffff1673ffffffffffffffffffffffffffffffffffffffff1681526020019081526020016000209081610ad191906126b3565b503373ffffffffffffffffffffffffffffffffffffffff168484604051610af992919061226c565b60405180910390207f2306b7cf866028b5cdb843627cb57ba65b0c13ea6a89ca871b2e609715cea79c83604051610b309190611ac5565b60405180910390a350505050565b6060600060048054905067ffffffffffffffff811115610b6157610b60611b93565b5b604051908082528060200260200182016040528015610b9a57816020015b610b8761185d565b815260200190600190039081610b7f5790505b50905060005b600480549050811015610ea657600160048281548110610bc357610bc2612a97565b5b90600052602060002001604051610bda9190612b49565b908152602001604051809103902060405180610100016040529081600082018054610c04906122b4565b80601f0160208091040260200160405190810160405280929190818152602001828054610c30906122b4565b8015610c7d5780601f10610c5257610100808354040283529160200191610c7d565b820191906000526020600020905b815481529060010190602001808311610c6057829003601f168201915b50505050508152602001600182018054610c96906122b4565b80601f0160208091040260200160405190810160405280929190818152602001828054610cc2906122b4565b8015610d0f5780601f10610ce457610100808354040283529160200191610d0f565b820191906000526020600020905b815481529060010190602001808311610cf257829003601f168201915b505050505081526020016002820154815260200160038201548152602001600482018054610d3c906122b4565b80601f0160208091040260200160405190810160405280929190818152602001828054610d68906122b4565b8015610db55780601f10610d8a57610100808354040283529160200191610db5565b820191906000526020600020905b815481529060010190602001808311610d9857829003601f168201915b50505050508152602001600582018054610dce906122b4565b80601f0160208091040260200160405190810160405280929190818152602001828054610dfa906122b4565b8015610e475780601f10610e1c57610100808354040283529160200191610e47565b820191906000526020600020905b815481529060010190602001808311610e2a57829003601f168201915b50505050508152602001600682015481526020016007820160009054906101000a900460ff161515151581525050828281518110610e8857610e87612a97565b5b60200260200101819052508080610e9e90612b8f565b915050610ba0565b508091505090565b60008054906101000a900473ffffffffffffffffffffffffffffffffffffffff1673ffffffffffffffffffffffffffffffffffffffff163373ffffffffffffffffffffffffffffffffffffffff1614610f3c576040517f08c379a0000000000000000000000000000000000000000000000000000000008152600401610f33906123c3565b60405180910390fd5b600060018787604051610f5092919061226c565b90815260200160405180910390206000018054610f6c906122b4565b905011610fae576040517f08c379a0000000000000000000000000000000000000000000000000000000008152600401610fa590612331565b60405180910390fd5b838360018888604051610fc292919061226c565b90815260200160405180910390206004019182610fe0929190612790565b50818160018888604051610ff592919061226c565b90815260200160405180910390206005019182611013929190612790565b50426001878760405161102792919061226c565b908152602001604051809103902060060181905550600180878760405161104f92919061226c565b908152602001604051809103902060070160006101000a81548160ff021916908315150217905550858560405161108792919061226c565b60405180910390207f4611d5526dad2943e0a2268f10cd5d2590aad52aa3ff07e99492b98e840e7714858585856040516110c49493929190612c04565b60405180910390a2505050505050565b60008054906101000a900473ffffffffffffffffffffffffffffffffffffffff1673ffffffffffffffffffffffffffffffffffffffff163373ffffffffffffffffffffffffffffffffffffffff1614611162576040517f08c379a0000000000000000000000000000000000000000000000000000000008152600401611159906123c3565b60405180910390fd5b60006001858560405161117692919061226c565b90815260200160405180910390206000018054611192906122b4565b9050116111d4576040517f08c379a00000000000000000000000000000000000000000000000000000000081526004016111cb90612331565b60405180910390fd5b60005b82829050811015611292576001600286866040516111f692919061226c565b9081526020016040518091039020600085858581811061121957611218612a97565b5b905060200201602081019061122e9190612c3f565b73ffffffffffffffffffffffffffffffffffffffff1673ffffffffffffffffffffffffffffffffffffffff16815260200190815260200160002060006101000a81548160ff021916908315150217905550808061128a90612b8f565b9150506111d7565b5083836040516112a392919061226c565b60405180910390207f291291647cc8954ae2b8fcde416eaccdbb5ea5a58c07c9e03e451ed71063a9cf838390506040516112dd9190612c6c565b60405180910390a250505050565b60008054906101000a900473ffffffffffffffffffffffffffffffffffffffff1681565b600382805160208101820180518482526020830160208501208183528095505050505050602052806000526040600020600091509150508054611351906122b4565b80601f016020809104026020016040519081016040528092919081815260200182805461137d906122b4565b80156113ca5780601f1061139f576101008083540402835291602001916113ca565b820191906000526020600020905b8154815290600101906020018083116113ad57829003601f168201915b505050505081565b60018180516020810182018051848252602083016020850120818352809550505050505060009150905080600001805461140b906122b4565b80601f0160208091040260200160405190810160405280929190818152602001828054611437906122b4565b80156114845780601f1061145957610100808354040283529160200191611484565b820191906000526020600020905b81548152906001019060200180831161146757829003601f168201915b505050505090806001018054611499906122b4565b80601f01602080910402602001604051908101604052809291908181526020018280546114c5906122b4565b80156115125780601f106114e757610100808354040283529160200191611512565b820191906000526020600020905b8154815290600101906020018083116114f557829003601f168201915b505050505090806002015490806003015490806004018054611533906122b4565b80601f016020809104026020016040519081016040528092919081815260200182805461155f906122b4565b80156115ac5780601f10611581576101008083540402835291602001916115ac565b820191906000526020600020905b81548152906001019060200180831161158f57829003601f168201915b5050505050908060050180546115c1906122b4565b80601f01602080910402602001604051908101604052809291908181526020018280546115ed906122b4565b801561163a5780601f1061160f5761010080835404028352916020019161163a565b820191906000526020600020905b81548152906001019060200180831161161d57829003601f168201915b5050505050908060060154908060070160009054906101000a900460ff16905088565b606060006040518060400160405280601081526020017f303132333435363738396162636465660000000000000000000000000000000081525090506000604067ffffffffffffffff8111156116b6576116b5611b93565b5b6040519080825280601f01601f1916602001820160405280156116e85781602001600182028036833780820191505090505b50905060005b60208110156118525782600486836020811061170d5761170c612a97565b5b1a60f81b7effffffffffffffffffffffffffffffffffffffffffffffffffffffffffffff1916901c60f81c60ff168151811061174c5761174b612a97565b5b602001015160f81c60f81b826002836117659190612c87565b8151811061177657611775612a97565b5b60200101907effffffffffffffffffffffffffffffffffffffffffffffffffffffffffffff1916908160001a90535082600f60f81b8683602081106117be576117bd612a97565b5b1a60f81b1660f81c60ff16815181106117da576117d9612a97565b5b602001015160f81c60f81b8260016002846117f59190612c87565b6117ff9190612cc9565b815181106118105761180f612a97565b5b60200101907effffffffffffffffffffffffffffffffffffffffffffffffffffffffffffff1916908160001a905350808061184a90612b8f565b9150506116ee565b508092505050919050565b604051806101000160405280606081526020016060815260200160008152602001600081526020016060815260200160608152602001600081526020016000151581525090565b6000604051905090565b600080fd5b600080fd5b600080fd5b600080fd5b600080fd5b60008083601f8401126118dd576118dc6118b8565b5b8235905067ffffffffffffffff8111156118fa576118f96118bd565b5b602083019150836001820283011115611916576119156118c2565b5b9250929050565b60008060208385031215611934576119336118ae565b5b600083013567ffffffffffffffff811115611952576119516118b3565b5b61195e858286016118c7565b92509250509250929050565b600081519050919050565b600082825260208201905092915050565b60005b838110156119a4578082015181840152602081019050611989565b60008484015250505050565b6000601f19601f8301169050919050565b60006119cc8261196a565b6119d68185611975565b93506119e6818560208601611986565b6119ef816119b0565b840191505092915050565b6000819050919050565b611a0d816119fa565b82525050565b60008115159050919050565b611a2881611a13565b82525050565b60006060820190508181036000830152611a4881866119c1565b9050611a576020830185611a04565b611a646040830184611a1f565b949350505050565b611a75816119fa565b8114611a8057600080fd5b50565b600081359050611a9281611a6c565b92915050565b600060208284031215611aae57611aad6118ae565b5b6000611abc84828501611a83565b91505092915050565b60006020820190508181036000830152611adf81846119c1565b905092915050565b60008060008060008060808789031215611b0457611b036118ae565b5b600087013567ffffffffffffffff811115611b2257611b216118b3565b5b611b2e89828a016118c7565b9650965050602087013567ffffffffffffffff811115611b5157611b506118b3565b5b611b5d89828a016118c7565b94509450506040611b7089828a01611a83565b9250506060611b8189828a01611a83565b9150509295509295509295565b600080fd5b7f4e487b7100000000000000000000000000000000000000000000000000000000600052604160045260246000fd5b611bcb826119b0565b810181811067ffffffffffffffff82111715611bea57611be9611b93565b5b80604052505050565b6000611bfd6118a4565b9050611c098282611bc2565b919050565b600067ffffffffffffffff821115611c2957611c28611b93565b5b611c32826119b0565b9050602081019050919050565b82818337600083830152505050565b6000611c61611c5c84611c0e565b611bf3565b905082815260208101848484011115611c7d57611c7c611b8e565b5b611c88848285611c3f565b509392505050565b600082601f830112611ca557611ca46118b8565b5b8135611cb5848260208601611c4e565b91505092915050565b600073ffffffffffffffffffffffffffffffffffffffff82169050919050565b6000611ce982611cbe565b9050919050565b611cf981611cde565b8114611d0457600080fd5b50565b600081359050611d1681611cf0565b92915050565b60008060408385031215611d3357611d326118ae565b5b600083013567ffffffffffffffff811115611d5157611d506118b3565b5b611d5d85828601611c90565b9250506020611d6e85828601611d07565b9150509250929050565b6000602082019050611d8d6000830184611a1f565b92915050565b600081519050919050565b600082825260208201905092915050565b6000819050602082019050919050565b600082825260208201905092915050565b6000611ddb8261196a565b611de58185611dbf565b9350611df5818560208601611986565b611dfe816119b0565b840191505092915050565b611e12816119fa565b82525050565b611e2181611a13565b82525050565b6000610100830160008301518482036000860152611e458282611dd0565b91505060208301518482036020860152611e5f8282611dd0565b9150506040830151611e746040860182611e09565b506060830151611e876060860182611e09565b5060808301518482036080860152611e9f8282611dd0565b91505060a083015184820360a0860152611eb98282611dd0565b91505060c0830151611ece60c0860182611e09565b5060e0830151611ee160e0860182611e18565b508091505092915050565b6000611ef88383611e27565b905092915050565b6000602082019050919050565b6000611f1882611d93565b611f228185611d9e565b935083602082028501611f3485611daf565b8060005b85811015611f705784840389528151611f518582611eec565b9450611f5c83611f00565b925060208a01995050600181019050611f38565b50829750879550505050505092915050565b60006020820190508181036000830152611f9c8184611f0d565b905092915050565b60008060008060008060608789031215611fc157611fc06118ae565b5b600087013567ffffffffffffffff811115611fdf57611fde6118b3565b5b611feb89828a016118c7565b9650965050602087013567ffffffffffffffff81111561200e5761200d6118b3565b5b61201a89828a016118c7565b9450945050604087013567ffffffffffffffff81111561203d5761203c6118b3565b5b61204989828a016118c7565b92509250509295509295509295565b60008083601f84011261206e5761206d6118b8565b5b8235905067ffffffffffffffff81111561208b5761208a6118bd565b5b6020830191508360208202830111156120a7576120a66118c2565b5b9250929050565b600080600080604085870312156120c8576120c76118ae565b5b600085013567ffffffffffffffff8111156120e6576120e56118b3565b5b6120f2878288016118c7565b9450945050602085013567ffffffffffffffff811115612115576121146118b3565b5b61212187828801612058565b925092505092959194509250565b61213881611cde565b82525050565b6000602082019050612153600083018461212f565b92915050565b60006020828403121561216f5761216e6118ae565b5b600082013567ffffffffffffffff81111561218d5761218c6118b3565b5b61219984828501611c90565b91505092915050565b60006101008201905081810360008301526121bd818b6119c1565b905081810360208301526121d1818a6119c1565b90506121e06040830189611a04565b6121ed6060830188611a04565b81810360808301526121ff81876119c1565b905081810360a083015261221381866119c1565b905061222260c0830185611a04565b61222f60e0830184611a1f565b9998505050505050505050565b600081905092915050565b6000612253838561223c565b9350612260838584611c3f565b82840190509392505050565b6000612279828486612247565b91508190509392505050565b7f4e487b7100000000000000000000000000000000000000000000000000000000600052602260045260246000fd5b600060028204905060018216806122cc57607f821691505b6020821081036122df576122de612285565b5b50919050565b7f4578616d20646f6573206e6f742065786973742e000000000000000000000000600082015250565b600061231b601483611975565b9150612326826122e5565b602082019050919050565b6000602082019050818103600083015261234a8161230e565b9050919050565b7f4f6e6c7920746865206f776e65722063616e20706572666f726d20746869732060008201527f616374696f6e2e00000000000000000000000000000000000000000000000000602082015250565b60006123ad602783611975565b91506123b882612351565b604082019050919050565b600060208201905081810360008301526123dc816123a0565b9050919050565b7f4578616d2077697468207468697320494420616c72656164792065786973747360008201527f2e00000000000000000000000000000000000000000000000000000000000000602082015250565b600061243f602183611975565b915061244a826123e3565b604082019050919050565b6000602082019050818103600083015261246e81612432565b9050919050565b7f53746172742074696d65206d757374206265206265666f726520656e6420746960008201527f6d652e0000000000000000000000000000000000000000000000000000000000602082015250565b60006124d1602383611975565b91506124dc82612475565b604082019050919050565b60006020820190508181036000830152612500816124c4565b9050919050565b60008190508160005260206000209050919050565b60006020601f8301049050919050565b600082821b905092915050565b6000600883026125697fffffffffffffffffffffffffffffffffffffffffffffffffffffffffffffffff8261252c565b612573868361252c565b95508019841693508086168417925050509392505050565b6000819050919050565b60006125b06125ab6125a6846119fa565b61258b565b6119fa565b9050919050565b6000819050919050565b6125ca83612595565b6125de6125d6826125b7565b848454612539565b825550505050565b600090565b6125f36125e6565b6125fe8184846125c1565b505050565b5b81811015612622576126176000826125eb565b600181019050612604565b5050565b601f8211156126675761263881612507565b6126418461251c565b81016020851015612650578190505b61266461265c8561251c565b830182612603565b50505b505050565b600082821c905092915050565b600061268a6000198460080261266c565b1980831691505092915050565b60006126a38383612679565b9150826002028217905092915050565b6126bc8261196a565b67ffffffffffffffff8111156126d5576126d4611b93565b5b6126df82546122b4565b6126ea828285612626565b600060209050601f83116001811461271d576000841561270b578287015190505b6127158582612697565b86555061277d565b601f19841661272b86612507565b60005b828110156127535784890151825560018201915060208501945060208101905061272e565b86831015612770578489015161276c601f891682612679565b8355505b6001600288020188555050505b505050505050565b600082905092915050565b61279a8383612785565b67ffffffffffffffff8111156127b3576127b2611b93565b5b6127bd82546122b4565b6127c8828285612626565b6000601f8311600181146127f757600084156127e5578287013590505b6127ef8582612697565b865550612857565b601f19841661280586612507565b60005b8281101561282d57848901358255600182019150602085019450602081019050612808565b8683101561284a5784890135612846601f891682612679565b8355505b6001600288020188555050505b50505050505050565b60006040820190506128756000830185611a04565b6128826020830184611a04565b9392505050565b7f53747564656e74206973206e6f74207265676973746572656420666f7220746860008201527f6973206578616d2e000000000000000000000000000000000000000000000000602082015250565b60006128e5602883611975565b91506128f082612889565b604082019050919050565b60006020820190508181036000830152612914816128d8565b9050919050565b7f4578616d206973206e6f74206163746976652e00000000000000000000000000600082015250565b6000612951601383611975565b915061295c8261291b565b602082019050919050565b6000602082019050818103600083015261298081612944565b9050919050565b7f417474656d7074206861736820616c72656164792067656e6572617465642e00600082015250565b60006129bd601f83611975565b91506129c882612987565b602082019050919050565b600060208201905081810360008301526129ec816129b0565b9050919050565b60008160601b9050919050565b6000612a0b826129f3565b9050919050565b6000612a1d82612a00565b9050919050565b612a35612a3082611cde565b612a12565b82525050565b6000819050919050565b612a56612a51826119fa565b612a3b565b82525050565b6000612a69828688612247565b9150612a758285612a24565b601482019150612a858284612a45565b60208201915081905095945050505050565b7f4e487b7100000000000000000000000000000000000000000000000000000000600052603260045260246000fd5b60008154612ad3816122b4565b612add818661223c565b94506001821660008114612af85760018114612b0d57612b40565b60ff1983168652811515820286019350612b40565b612b1685612507565b60005b83811015612b3857815481890152600182019150602081019050612b19565b838801955050505b50505092915050565b6000612b558284612ac6565b915081905092915050565b7f4e487b7100000000000000000000000000000000000000000000000000000000600052601160045260246000fd5b6000612b9a826119fa565b91507fffffffffffffffffffffffffffffffffffffffffffffffffffffffffffffffff8203612bcc57612bcb612b60565b5b600182019050919050565b6000612be38385611975565b9350612bf0838584611c3f565b612bf9836119b0565b840190509392505050565b60006040820190508181036000830152612c1f818688612bd7565b90508181036020830152612c34818486612bd7565b905095945050505050565b600060208284031215612c5557612c546118ae565b5b6000612c6384828501611d07565b91505092915050565b6000602082019050612c816000830184611a04565b92915050565b6000612c92826119fa565b9150612c9d836119fa565b9250828202612cab816119fa565b91508282048414831517612cc257612cc1612b60565b5b5092915050565b6000612cd4826119fa565b9150612cdf836119fa565b9250828201905080821115612cf757612cf6612b60565b5b9291505056fea2646970667358221220d9003a4155657393ca94031ed44cc84689abd7c5e586af22a2dabd0a904d8e6664736f6c63430008130033",
  "linkReferences": {},
  "deployedLinkReferences": {}
}